{
  "_format": "hh-sol-artifact-1",
  "contractName": "NFTMarket",
  "sourceName": "contracts/NFTMarket.sol",
  "abi": [
    {
      "inputs": [],
      "stateMutability": "nonpayable",
      "type": "constructor"
    },
    {
      "anonymous": false,
      "inputs": [
        {
          "indexed": true,
          "internalType": "uint256",
          "name": "itemId",
          "type": "uint256"
        },
        {
          "indexed": true,
          "internalType": "address",
          "name": "nftContract",
          "type": "address"
        },
        {
          "indexed": true,
          "internalType": "uint256",
          "name": "tokenId",
          "type": "uint256"
        },
        {
          "indexed": false,
          "internalType": "address",
          "name": "seller",
          "type": "address"
        },
        {
          "indexed": false,
          "internalType": "address",
          "name": "owner",
          "type": "address"
        },
        {
          "indexed": false,
          "internalType": "uint256",
          "name": "price",
          "type": "uint256"
        },
        {
          "indexed": false,
          "internalType": "bool",
          "name": "sold",
          "type": "bool"
        }
      ],
      "name": "MarketItemCreated",
      "type": "event"
    },
    {
      "inputs": [
        {
          "internalType": "address",
          "name": "nftContract",
          "type": "address"
        },
        {
          "internalType": "uint256",
          "name": "tokenId",
          "type": "uint256"
        },
        {
          "internalType": "uint256",
          "name": "price",
          "type": "uint256"
        }
      ],
      "name": "createMarketItem",
      "outputs": [],
      "stateMutability": "payable",
      "type": "function"
    },
    {
      "inputs": [
        {
          "internalType": "address",
          "name": "nftContract",
          "type": "address"
        },
        {
          "internalType": "uint256",
          "name": "itemId",
          "type": "uint256"
        }
      ],
      "name": "createMarketSale",
      "outputs": [],
      "stateMutability": "payable",
      "type": "function"
    },
    {
      "inputs": [],
      "name": "fetchItemsCreated",
      "outputs": [
        {
          "components": [
            {
              "internalType": "uint256",
              "name": "itemId",
              "type": "uint256"
            },
            {
              "internalType": "address",
              "name": "nftContract",
              "type": "address"
            },
            {
              "internalType": "uint256",
              "name": "tokenId",
              "type": "uint256"
            },
            {
              "internalType": "address payable",
              "name": "seller",
              "type": "address"
            },
            {
              "internalType": "address payable",
              "name": "owner",
              "type": "address"
            },
            {
              "internalType": "uint256",
              "name": "price",
              "type": "uint256"
            },
            {
              "internalType": "bool",
              "name": "sold",
              "type": "bool"
            }
          ],
          "internalType": "struct NFTMarket.MarketItem[]",
          "name": "",
          "type": "tuple[]"
        }
      ],
      "stateMutability": "view",
      "type": "function"
    },
    {
      "inputs": [],
      "name": "fetchMarketItems",
      "outputs": [
        {
          "components": [
            {
              "internalType": "uint256",
              "name": "itemId",
              "type": "uint256"
            },
            {
              "internalType": "address",
              "name": "nftContract",
              "type": "address"
            },
            {
              "internalType": "uint256",
              "name": "tokenId",
              "type": "uint256"
            },
            {
              "internalType": "address payable",
              "name": "seller",
              "type": "address"
            },
            {
              "internalType": "address payable",
              "name": "owner",
              "type": "address"
            },
            {
              "internalType": "uint256",
              "name": "price",
              "type": "uint256"
            },
            {
              "internalType": "bool",
              "name": "sold",
              "type": "bool"
            }
          ],
          "internalType": "struct NFTMarket.MarketItem[]",
          "name": "",
          "type": "tuple[]"
        }
      ],
      "stateMutability": "view",
      "type": "function"
    },
    {
      "inputs": [],
      "name": "fetchMyNFTs",
      "outputs": [
        {
          "components": [
            {
              "internalType": "uint256",
              "name": "itemId",
              "type": "uint256"
            },
            {
              "internalType": "address",
              "name": "nftContract",
              "type": "address"
            },
            {
              "internalType": "uint256",
              "name": "tokenId",
              "type": "uint256"
            },
            {
              "internalType": "address payable",
              "name": "seller",
              "type": "address"
            },
            {
              "internalType": "address payable",
              "name": "owner",
              "type": "address"
            },
            {
              "internalType": "uint256",
              "name": "price",
              "type": "uint256"
            },
            {
              "internalType": "bool",
              "name": "sold",
              "type": "bool"
            }
          ],
          "internalType": "struct NFTMarket.MarketItem[]",
          "name": "",
          "type": "tuple[]"
        }
      ],
      "stateMutability": "view",
      "type": "function"
    },
    {
      "inputs": [],
      "name": "getListingPrice",
      "outputs": [
        {
          "internalType": "uint256",
          "name": "",
          "type": "uint256"
        }
      ],
      "stateMutability": "view",
      "type": "function"
    },
    {
      "inputs": [
        {
          "internalType": "uint256",
          "name": "",
          "type": "uint256"
        }
      ],
      "name": "idToMarketItem",
      "outputs": [
        {
          "internalType": "uint256",
          "name": "itemId",
          "type": "uint256"
        },
        {
          "internalType": "address",
          "name": "nftContract",
          "type": "address"
        },
        {
          "internalType": "uint256",
          "name": "tokenId",
          "type": "uint256"
        },
        {
          "internalType": "address payable",
          "name": "seller",
          "type": "address"
        },
        {
          "internalType": "address payable",
          "name": "owner",
          "type": "address"
        },
        {
          "internalType": "uint256",
          "name": "price",
          "type": "uint256"
        },
        {
          "internalType": "bool",
          "name": "sold",
          "type": "bool"
        }
      ],
      "stateMutability": "view",
      "type": "function"
    }
  ],
  "bytecode": "0x60806040526658d15e1762800060045534801561001b57600080fd5b50600160008190555033600360006101000a81548173ffffffffffffffffffffffffffffffffffffffff021916908373ffffffffffffffffffffffffffffffffffffffff160217905550611a19806100746000396000f3fe6080604052600436106100705760003560e01c806358eb2df51161004e57806358eb2df5146100f6578063c23b139e14610112578063e61a70c01461012e578063f064c32e1461017157610070565b80630f08efe01461007557806312e85585146100a0578063202e3740146100cb575b600080fd5b34801561008157600080fd5b5061008a61019c565b6040516100979190611418565b60405180910390f35b3480156100ac57600080fd5b506100b5610465565b6040516100c29190611449565b60405180910390f35b3480156100d757600080fd5b506100e061046f565b6040516100ed9190611418565b60405180910390f35b610110600480360381019061010b91906114c1565b6107bb565b005b61012c60048036038101906101279190611514565b610ad9565b005b34801561013a57600080fd5b5061015560048036038101906101509190611554565b610d4c565b60405161016897969594939291906115ae565b60405180910390f35b34801561017d57600080fd5b50610186610dfb565b6040516101939190611418565b60405180910390f35b606060006101aa6001611147565b905060006101b86002611147565b6101c26001611147565b6101cc919061164c565b90506000808267ffffffffffffffff8111156101eb576101ea611680565b5b60405190808252806020026020018201604052801561022457816020015b6102116111c4565b8152602001906001900390816102095790505b50905060005b8481101561045a57600073ffffffffffffffffffffffffffffffffffffffff166005600060018461025b91906116af565b815260200190815260200160002060040160009054906101000a900473ffffffffffffffffffffffffffffffffffffffff1673ffffffffffffffffffffffffffffffffffffffff16036104475760006001826102b791906116af565b90506000600560008381526020019081526020016000209050806040518060e0016040529081600082015481526020016001820160009054906101000a900473ffffffffffffffffffffffffffffffffffffffff1673ffffffffffffffffffffffffffffffffffffffff1673ffffffffffffffffffffffffffffffffffffffff168152602001600282015481526020016003820160009054906101000a900473ffffffffffffffffffffffffffffffffffffffff1673ffffffffffffffffffffffffffffffffffffffff1673ffffffffffffffffffffffffffffffffffffffff1681526020016004820160009054906101000a900473ffffffffffffffffffffffffffffffffffffffff1673ffffffffffffffffffffffffffffffffffffffff1673ffffffffffffffffffffffffffffffffffffffff168152602001600582015481526020016006820160009054906101000a900460ff16151515158152505084868151811061042a576104296116e3565b5b602002602001018190525060018561044291906116af565b945050505b808061045290611712565b91505061022a565b508094505050505090565b6000600454905090565b6060600061047d6001611147565b905060008060005b83811015610525573373ffffffffffffffffffffffffffffffffffffffff16600560006001846104b591906116af565b815260200190815260200160002060040160009054906101000a900473ffffffffffffffffffffffffffffffffffffffff1673ffffffffffffffffffffffffffffffffffffffff16036105125760018361050f91906116af565b92505b808061051d90611712565b915050610485565b5060008267ffffffffffffffff81111561054257610541611680565b5b60405190808252806020026020018201604052801561057b57816020015b6105686111c4565b8152602001906001900390816105605790505b50905060005b848110156107b0573373ffffffffffffffffffffffffffffffffffffffff16600560006001846105b191906116af565b815260200190815260200160002060040160009054906101000a900473ffffffffffffffffffffffffffffffffffffffff1673ffffffffffffffffffffffffffffffffffffffff160361079d57600060018261060d91906116af565b90506000600560008381526020019081526020016000209050806040518060e0016040529081600082015481526020016001820160009054906101000a900473ffffffffffffffffffffffffffffffffffffffff1673ffffffffffffffffffffffffffffffffffffffff1673ffffffffffffffffffffffffffffffffffffffff168152602001600282015481526020016003820160009054906101000a900473ffffffffffffffffffffffffffffffffffffffff1673ffffffffffffffffffffffffffffffffffffffff1673ffffffffffffffffffffffffffffffffffffffff1681526020016004820160009054906101000a900473ffffffffffffffffffffffffffffffffffffffff1673ffffffffffffffffffffffffffffffffffffffff1673ffffffffffffffffffffffffffffffffffffffff168152602001600582015481526020016006820160009054906101000a900460ff1615151515815250508486815181106107805761077f6116e3565b5b602002602001018190525060018561079891906116af565b945050505b80806107a890611712565b915050610581565b508094505050505090565b6107c3611155565b60008111610806576040517f08c379a00000000000000000000000000000000000000000000000000000000081526004016107fd906117b7565b60405180910390fd5b600454341461084a576040517f08c379a000000000000000000000000000000000000000000000000000000000815260040161084190611849565b60405180910390fd5b61085460016111a4565b60006108606001611147565b90506040518060e001604052808281526020018573ffffffffffffffffffffffffffffffffffffffff1681526020018481526020013373ffffffffffffffffffffffffffffffffffffffff168152602001600073ffffffffffffffffffffffffffffffffffffffff16815260200183815260200160001515815250600560008381526020019081526020016000206000820151816000015560208201518160010160006101000a81548173ffffffffffffffffffffffffffffffffffffffff021916908373ffffffffffffffffffffffffffffffffffffffff1602179055506040820151816002015560608201518160030160006101000a81548173ffffffffffffffffffffffffffffffffffffffff021916908373ffffffffffffffffffffffffffffffffffffffff16021790555060808201518160040160006101000a81548173ffffffffffffffffffffffffffffffffffffffff021916908373ffffffffffffffffffffffffffffffffffffffff16021790555060a0820151816005015560c08201518160060160006101000a81548160ff0219169083151502179055509050508373ffffffffffffffffffffffffffffffffffffffff166323b872dd3330866040518463ffffffff1660e01b8152600401610a4193929190611869565b600060405180830381600087803b158015610a5b57600080fd5b505af1158015610a6f573d6000803e3d6000fd5b50505050828473ffffffffffffffffffffffffffffffffffffffff16827f045dfa01dcba2b36aba1d3dc4a874f4b0c5d2fbeb8d2c4b34a7d88c8d8f929d1336000876000604051610ac394939291906118a0565b60405180910390a450610ad46111ba565b505050565b610ae1611155565b600060056000838152602001908152602001600020600501549050600060056000848152602001908152602001600020600201549050813414610b59576040517f08c379a0000000000000000000000000000000000000000000000000000000008152600401610b5090611957565b60405180910390fd5b6005600084815260200190815260200160002060030160009054906101000a900473ffffffffffffffffffffffffffffffffffffffff1673ffffffffffffffffffffffffffffffffffffffff166108fc349081150290604051600060405180830381858888f19350505050158015610bd5573d6000803e3d6000fd5b508373ffffffffffffffffffffffffffffffffffffffff166323b872dd3033846040518463ffffffff1660e01b8152600401610c1393929190611869565b600060405180830381600087803b158015610c2d57600080fd5b505af1158015610c41573d6000803e3d6000fd5b50505050336005600085815260200190815260200160002060040160006101000a81548173ffffffffffffffffffffffffffffffffffffffff021916908373ffffffffffffffffffffffffffffffffffffffff16021790555060016005600085815260200190815260200160002060060160006101000a81548160ff021916908315150217905550610cd360026111a4565b600360009054906101000a900473ffffffffffffffffffffffffffffffffffffffff1673ffffffffffffffffffffffffffffffffffffffff166108fc6004549081150290604051600060405180830381858888f19350505050158015610d3d573d6000803e3d6000fd5b505050610d486111ba565b5050565b60056020528060005260406000206000915090508060000154908060010160009054906101000a900473ffffffffffffffffffffffffffffffffffffffff16908060020154908060030160009054906101000a900473ffffffffffffffffffffffffffffffffffffffff16908060040160009054906101000a900473ffffffffffffffffffffffffffffffffffffffff16908060050154908060060160009054906101000a900460ff16905087565b60606000610e096001611147565b905060008060005b83811015610eb1573373ffffffffffffffffffffffffffffffffffffffff1660056000600184610e4191906116af565b815260200190815260200160002060030160009054906101000a900473ffffffffffffffffffffffffffffffffffffffff1673ffffffffffffffffffffffffffffffffffffffff1603610e9e57600183610e9b91906116af565b92505b8080610ea990611712565b915050610e11565b5060008267ffffffffffffffff811115610ece57610ecd611680565b5b604051908082528060200260200182016040528015610f0757816020015b610ef46111c4565b815260200190600190039081610eec5790505b50905060005b8481101561113c573373ffffffffffffffffffffffffffffffffffffffff1660056000600184610f3d91906116af565b815260200190815260200160002060030160009054906101000a900473ffffffffffffffffffffffffffffffffffffffff1673ffffffffffffffffffffffffffffffffffffffff1603611129576000600182610f9991906116af565b90506000600560008381526020019081526020016000209050806040518060e0016040529081600082015481526020016001820160009054906101000a900473ffffffffffffffffffffffffffffffffffffffff1673ffffffffffffffffffffffffffffffffffffffff1673ffffffffffffffffffffffffffffffffffffffff168152602001600282015481526020016003820160009054906101000a900473ffffffffffffffffffffffffffffffffffffffff1673ffffffffffffffffffffffffffffffffffffffff1673ffffffffffffffffffffffffffffffffffffffff1681526020016004820160009054906101000a900473ffffffffffffffffffffffffffffffffffffffff1673ffffffffffffffffffffffffffffffffffffffff1673ffffffffffffffffffffffffffffffffffffffff168152602001600582015481526020016006820160009054906101000a900460ff16151515158152505084868151811061110c5761110b6116e3565b5b602002602001018190525060018561112491906116af565b945050505b808061113490611712565b915050610f0d565b508094505050505090565b600081600001549050919050565b60026000540361119a576040517f08c379a0000000000000000000000000000000000000000000000000000000008152600401611191906119c3565b60405180910390fd5b6002600081905550565b6001816000016000828254019250508190555050565b6001600081905550565b6040518060e0016040528060008152602001600073ffffffffffffffffffffffffffffffffffffffff16815260200160008152602001600073ffffffffffffffffffffffffffffffffffffffff168152602001600073ffffffffffffffffffffffffffffffffffffffff168152602001600081526020016000151581525090565b600081519050919050565b600082825260208201905092915050565b6000819050602082019050919050565b6000819050919050565b61128481611271565b82525050565b600073ffffffffffffffffffffffffffffffffffffffff82169050919050565b60006112b58261128a565b9050919050565b6112c5816112aa565b82525050565b60006112d68261128a565b9050919050565b6112e6816112cb565b82525050565b60008115159050919050565b611301816112ec565b82525050565b60e08201600082015161131d600085018261127b565b50602082015161133060208501826112bc565b506040820151611343604085018261127b565b50606082015161135660608501826112dd565b50608082015161136960808501826112dd565b5060a082015161137c60a085018261127b565b5060c082015161138f60c08501826112f8565b50505050565b60006113a18383611307565b60e08301905092915050565b6000602082019050919050565b60006113c582611245565b6113cf8185611250565b93506113da83611261565b8060005b8381101561140b5781516113f28882611395565b97506113fd836113ad565b9250506001810190506113de565b5085935050505092915050565b6000602082019050818103600083015261143281846113ba565b905092915050565b61144381611271565b82525050565b600060208201905061145e600083018461143a565b92915050565b600080fd5b611472816112aa565b811461147d57600080fd5b50565b60008135905061148f81611469565b92915050565b61149e81611271565b81146114a957600080fd5b50565b6000813590506114bb81611495565b92915050565b6000806000606084860312156114da576114d9611464565b5b60006114e886828701611480565b93505060206114f9868287016114ac565b925050604061150a868287016114ac565b9150509250925092565b6000806040838503121561152b5761152a611464565b5b600061153985828601611480565b925050602061154a858286016114ac565b9150509250929050565b60006020828403121561156a57611569611464565b5b6000611578848285016114ac565b91505092915050565b61158a816112aa565b82525050565b611599816112cb565b82525050565b6115a8816112ec565b82525050565b600060e0820190506115c3600083018a61143a565b6115d06020830189611581565b6115dd604083018861143a565b6115ea6060830187611590565b6115f76080830186611590565b61160460a083018561143a565b61161160c083018461159f565b98975050505050505050565b7f4e487b7100000000000000000000000000000000000000000000000000000000600052601160045260246000fd5b600061165782611271565b915061166283611271565b925082820390508181111561167a5761167961161d565b5b92915050565b7f4e487b7100000000000000000000000000000000000000000000000000000000600052604160045260246000fd5b60006116ba82611271565b91506116c583611271565b92508282019050808211156116dd576116dc61161d565b5b92915050565b7f4e487b7100000000000000000000000000000000000000000000000000000000600052603260045260246000fd5b600061171d82611271565b91507fffffffffffffffffffffffffffffffffffffffffffffffffffffffffffffffff820361174f5761174e61161d565b5b600182019050919050565b600082825260208201905092915050565b7f5072696365206d757374206265206174206c6561737420312077656900000000600082015250565b60006117a1601c8361175a565b91506117ac8261176b565b602082019050919050565b600060208201905081810360008301526117d081611794565b9050919050565b7f5072696365206d75737420626520657175616c20746f206c697374696e67207060008201527f7269636500000000000000000000000000000000000000000000000000000000602082015250565b600061183360248361175a565b915061183e826117d7565b604082019050919050565b6000602082019050818103600083015261186281611826565b9050919050565b600060608201905061187e6000830186611581565b61188b6020830185611581565b611898604083018461143a565b949350505050565b60006080820190506118b56000830187611581565b6118c26020830186611581565b6118cf604083018561143a565b6118dc606083018461159f565b95945050505050565b7f506c65617365207375626d6974207468652061736b696e67207072696365206960008201527f6e206f7264657220746f20636f6d706c65746520746865207075726368617365602082015250565b600061194160408361175a565b915061194c826118e5565b604082019050919050565b6000602082019050818103600083015261197081611934565b9050919050565b7f5265656e7472616e637947756172643a207265656e7472616e742063616c6c00600082015250565b60006119ad601f8361175a565b91506119b882611977565b602082019050919050565b600060208201905081810360008301526119dc816119a0565b905091905056fea2646970667358221220b5e918ada84000f26f4e3d7ad4e8468d830629dfd9894a229f0a51a1a5b1e72c64736f6c63430008140033",
  "linkReferences": {},
  "deployedLinkReferences": {}
}